{
  "_format": "hh-sol-artifact-1",
  "contractName": "TaskContract",
  "sourceName": "contracts/TaksContract.sol",
  "abi": [
    {
      "anonymous": false,
      "inputs": [
        {
          "indexed": false,
          "internalType": "address",
          "name": "recipient",
          "type": "address"
        },
        {
          "indexed": false,
          "internalType": "uint256",
          "name": "taskId",
          "type": "uint256"
        }
      ],
      "name": "AddTask",
      "type": "event"
    },
    {
      "anonymous": false,
      "inputs": [
        {
          "indexed": false,
          "internalType": "uint256",
          "name": "taskId",
          "type": "uint256"
        },
        {
          "indexed": false,
          "internalType": "bool",
          "name": "isDeleted",
          "type": "bool"
        }
      ],
      "name": "DeleteTask",
      "type": "event"
    },
    {
      "inputs": [
        {
          "internalType": "string",
          "name": "taskText",
          "type": "string"
        },
        {
          "internalType": "bool",
          "name": "isDeleted",
          "type": "bool"
        }
      ],
      "name": "addTask",
      "outputs": [],
      "stateMutability": "nonpayable",
      "type": "function"
    },
    {
      "inputs": [
        {
          "internalType": "uint256",
          "name": "taskId",
          "type": "uint256"
        },
        {
          "internalType": "bool",
          "name": "isDeleted",
          "type": "bool"
        }
      ],
      "name": "deleteTask",
      "outputs": [],
      "stateMutability": "nonpayable",
      "type": "function"
    },
    {
      "inputs": [],
      "name": "getMyTasks",
      "outputs": [
        {
          "components": [
            {
              "internalType": "uint256",
              "name": "id",
              "type": "uint256"
            },
            {
              "internalType": "address",
              "name": "username",
              "type": "address"
            },
            {
              "internalType": "string",
              "name": "taskText",
              "type": "string"
            },
            {
              "internalType": "bool",
              "name": "isDeleted",
              "type": "bool"
            }
          ],
          "internalType": "struct TaskContract.Task[]",
          "name": "",
          "type": "tuple[]"
        }
      ],
      "stateMutability": "view",
      "type": "function"
    }
  ],
  "bytecode": "0x6080604052348015600f57600080fd5b50610f6e8061001f6000396000f3fe608060405234801561001057600080fd5b50600436106100415760003560e01c806320df4581146100465780636e13f81814610062578063aaba290714610080575b600080fd5b610060600480360381019061005b919061083e565b61009c565b005b61006a610222565b6040516100779190610aa7565b60405180910390f35b61009a60048036038101906100959190610af5565b61058b565b005b600080805490509050600060405180608001604052808381526020013373ffffffffffffffffffffffffffffffffffffffff16815260200185815260200184151581525090806001815401808255809150506001900390600052602060002090600402016000909190919091506000820151816000015560208201518160010160006101000a81548173ffffffffffffffffffffffffffffffffffffffff021916908373ffffffffffffffffffffffffffffffffffffffff160217905550604082015181600201908161016f9190610d41565b5060608201518160030160006101000a81548160ff0219169083151502179055505050336001600083815260200190815260200160002060006101000a81548173ffffffffffffffffffffffffffffffffffffffff021916908373ffffffffffffffffffffffffffffffffffffffff1602179055507f1f54e1ba1832d428fbd7e7792beaf62b1fc5a382c207ffd614209c1413e94fda3382604051610215929190610e31565b60405180910390a1505050565b60606000805b6000805490508110156102fa573373ffffffffffffffffffffffffffffffffffffffff166001600083815260200190815260200160002060009054906101000a900473ffffffffffffffffffffffffffffffffffffffff1673ffffffffffffffffffffffffffffffffffffffff161480156102d9575060001515600082815481106102b6576102b5610e5a565b5b906000526020600020906004020160030160009054906101000a900460ff161515145b156102ed5781806102e990610eb8565b9250505b8080600101915050610228565b5060008167ffffffffffffffff811115610317576103166106db565b5b60405190808252806020026020018201604052801561035057816020015b61033d61066c565b8152602001906001900390816103355790505b5090506000805b600080549050811015610581573373ffffffffffffffffffffffffffffffffffffffff166001600083815260200190815260200160002060009054906101000a900473ffffffffffffffffffffffffffffffffffffffff1673ffffffffffffffffffffffffffffffffffffffff16148015610408575060001515600082815481106103e5576103e4610e5a565b5b906000526020600020906004020160030160009054906101000a900460ff161515145b15610574576000818154811061042157610420610e5a565b5b9060005260206000209060040201604051806080016040529081600082015481526020016001820160009054906101000a900473ffffffffffffffffffffffffffffffffffffffff1673ffffffffffffffffffffffffffffffffffffffff1673ffffffffffffffffffffffffffffffffffffffff1681526020016002820180546104aa90610b64565b80601f01602080910402602001604051908101604052809291908181526020018280546104d690610b64565b80156105235780601f106104f857610100808354040283529160200191610523565b820191906000526020600020905b81548152906001019060200180831161050657829003601f168201915b505050505081526020016003820160009054906101000a900460ff16151515158152505083838151811061055a57610559610e5a565b5b6020026020010181905250818061057090610eb8565b9250505b8080600101915050610357565b5081935050505090565b3373ffffffffffffffffffffffffffffffffffffffff166001600084815260200190815260200160002060009054906101000a900473ffffffffffffffffffffffffffffffffffffffff1673ffffffffffffffffffffffffffffffffffffffff160361066857806000838154811061060657610605610e5a565b5b906000526020600020906004020160030160006101000a81548160ff0219169083151502179055507ff88a35c3d2016c409a46570b994a17b408dbc83c14a03f521512d50b85386d06828260405161065f929190610f0f565b60405180910390a15b5050565b604051806080016040528060008152602001600073ffffffffffffffffffffffffffffffffffffffff168152602001606081526020016000151581525090565b6000604051905090565b600080fd5b600080fd5b600080fd5b600080fd5b6000601f19601f8301169050919050565b7f4e487b7100000000000000000000000000000000000000000000000000000000600052604160045260246000fd5b610713826106ca565b810181811067ffffffffffffffff82111715610732576107316106db565b5b80604052505050565b60006107456106ac565b9050610751828261070a565b919050565b600067ffffffffffffffff821115610771576107706106db565b5b61077a826106ca565b9050602081019050919050565b82818337600083830152505050565b60006107a96107a484610756565b61073b565b9050828152602081018484840111156107c5576107c46106c5565b5b6107d0848285610787565b509392505050565b600082601f8301126107ed576107ec6106c0565b5b81356107fd848260208601610796565b91505092915050565b60008115159050919050565b61081b81610806565b811461082657600080fd5b50565b60008135905061083881610812565b92915050565b60008060408385031215610855576108546106b6565b5b600083013567ffffffffffffffff811115610873576108726106bb565b5b61087f858286016107d8565b925050602061089085828601610829565b9150509250929050565b600081519050919050565b600082825260208201905092915050565b6000819050602082019050919050565b6000819050919050565b6108d9816108c6565b82525050565b600073ffffffffffffffffffffffffffffffffffffffff82169050919050565b600061090a826108df565b9050919050565b61091a816108ff565b82525050565b600081519050919050565b600082825260208201905092915050565b60005b8381101561095a57808201518184015260208101905061093f565b60008484015250505050565b600061097182610920565b61097b818561092b565b935061098b81856020860161093c565b610994816106ca565b840191505092915050565b6109a881610806565b82525050565b60006080830160008301516109c660008601826108d0565b5060208301516109d96020860182610911565b50604083015184820360408601526109f18282610966565b9150506060830151610a06606086018261099f565b508091505092915050565b6000610a1d83836109ae565b905092915050565b6000602082019050919050565b6000610a3d8261089a565b610a4781856108a5565b935083602082028501610a59856108b6565b8060005b85811015610a955784840389528151610a768582610a11565b9450610a8183610a25565b925060208a01995050600181019050610a5d565b50829750879550505050505092915050565b60006020820190508181036000830152610ac18184610a32565b905092915050565b610ad2816108c6565b8114610add57600080fd5b50565b600081359050610aef81610ac9565b92915050565b60008060408385031215610b0c57610b0b6106b6565b5b6000610b1a85828601610ae0565b9250506020610b2b85828601610829565b9150509250929050565b7f4e487b7100000000000000000000000000000000000000000000000000000000600052602260045260246000fd5b60006002820490506001821680610b7c57607f821691505b602082108103610b8f57610b8e610b35565b5b50919050565b60008190508160005260206000209050919050565b60006020601f8301049050919050565b600082821b905092915050565b600060088302610bf77fffffffffffffffffffffffffffffffffffffffffffffffffffffffffffffffff82610bba565b610c018683610bba565b95508019841693508086168417925050509392505050565b6000819050919050565b6000610c3e610c39610c34846108c6565b610c19565b6108c6565b9050919050565b6000819050919050565b610c5883610c23565b610c6c610c6482610c45565b848454610bc7565b825550505050565b600090565b610c81610c74565b610c8c818484610c4f565b505050565b5b81811015610cb057610ca5600082610c79565b600181019050610c92565b5050565b601f821115610cf557610cc681610b95565b610ccf84610baa565b81016020851015610cde578190505b610cf2610cea85610baa565b830182610c91565b50505b505050565b600082821c905092915050565b6000610d1860001984600802610cfa565b1980831691505092915050565b6000610d318383610d07565b9150826002028217905092915050565b610d4a82610920565b67ffffffffffffffff811115610d6357610d626106db565b5b610d6d8254610b64565b610d78828285610cb4565b600060209050601f831160018114610dab5760008415610d99578287015190505b610da38582610d25565b865550610e0b565b601f198416610db986610b95565b60005b82811015610de157848901518255600182019150602085019450602081019050610dbc565b86831015610dfe5784890151610dfa601f891682610d07565b8355505b6001600288020188555050505b505050505050565b610e1c816108ff565b82525050565b610e2b816108c6565b82525050565b6000604082019050610e466000830185610e13565b610e536020830184610e22565b9392505050565b7f4e487b7100000000000000000000000000000000000000000000000000000000600052603260045260246000fd5b7f4e487b7100000000000000000000000000000000000000000000000000000000600052601160045260246000fd5b6000610ec3826108c6565b91507fffffffffffffffffffffffffffffffffffffffffffffffffffffffffffffffff8203610ef557610ef4610e89565b5b600182019050919050565b610f0981610806565b82525050565b6000604082019050610f246000830185610e22565b610f316020830184610f00565b939250505056fea264697066735822122024b927fa403f3f3d9ca8f52e80ad642c9647a0493ebda6748f774ca13d4b8b4764736f6c634300081a0033",
  "linkReferences": {},
  "deployedLinkReferences": {}
}