{
  "_format": "hh-sol-artifact-1",
  "contractName": "TaskContract",
  "sourceName": "contracts/TaksContract.sol",
  "abi": [
    {
      "anonymous": false,
      "inputs": [
        {
          "indexed": false,
          "internalType": "address",
          "name": "recipient",
          "type": "address"
        },
        {
          "indexed": false,
          "internalType": "uint256",
          "name": "taskId",
          "type": "uint256"
        },
        {
          "indexed": false,
          "internalType": "string",
          "name": "taskText",
          "type": "string"
        },
        {
          "indexed": false,
          "internalType": "enum TaskContract.Importance",
          "name": "importance",
          "type": "uint8"
        }
      ],
      "name": "AddTask",
      "type": "event"
    },
    {
      "anonymous": false,
      "inputs": [
        {
          "indexed": false,
          "internalType": "uint256",
          "name": "taskId",
          "type": "uint256"
        },
        {
          "indexed": false,
          "internalType": "bool",
          "name": "isDeleted",
          "type": "bool"
        }
      ],
      "name": "DeleteTask",
      "type": "event"
    },
    {
      "inputs": [
        {
          "internalType": "string",
          "name": "taskText",
          "type": "string"
        },
        {
          "internalType": "enum TaskContract.Importance",
          "name": "importance",
          "type": "uint8"
        },
        {
          "internalType": "bool",
          "name": "isDeleted",
          "type": "bool"
        }
      ],
      "name": "addTask",
      "outputs": [],
      "stateMutability": "nonpayable",
      "type": "function"
    },
    {
      "inputs": [
        {
          "internalType": "uint256",
          "name": "taskId",
          "type": "uint256"
        },
        {
          "internalType": "bool",
          "name": "isDeleted",
          "type": "bool"
        }
      ],
      "name": "deleteTask",
      "outputs": [],
      "stateMutability": "nonpayable",
      "type": "function"
    },
    {
      "inputs": [],
      "name": "getMyTasks",
      "outputs": [
        {
          "components": [
            {
              "internalType": "uint256",
              "name": "id",
              "type": "uint256"
            },
            {
              "internalType": "address",
              "name": "username",
              "type": "address"
            },
            {
              "internalType": "string",
              "name": "taskText",
              "type": "string"
            },
            {
              "internalType": "enum TaskContract.Importance",
              "name": "importance",
              "type": "uint8"
            },
            {
              "internalType": "bool",
              "name": "isDeleted",
              "type": "bool"
            }
          ],
          "internalType": "struct TaskContract.Task[]",
          "name": "",
          "type": "tuple[]"
        }
      ],
      "stateMutability": "view",
      "type": "function"
    }
  ],
  "bytecode": "0x6080604052348015600f57600080fd5b5061114d8061001f6000396000f3fe608060405234801561001057600080fd5b50600436106100415760003560e01c80636e13f81814610046578063790c84a914610064578063aaba290714610080575b600080fd5b61004e61009c565b60405161005b9190610a01565b60405180910390f35b61007e60048036038101906100799190610bbd565b610440565b005b61009a60048036038101906100959190610c58565b610613565b005b60606000805b600080549050811015610174573373ffffffffffffffffffffffffffffffffffffffff166001600083815260200190815260200160002060009054906101000a900473ffffffffffffffffffffffffffffffffffffffff1673ffffffffffffffffffffffffffffffffffffffff16148015610153575060001515600082815481106101305761012f610c98565b5b906000526020600020906004020160030160019054906101000a900460ff161515145b1561016757818061016390610cf6565b9250505b80806001019150506100a2565b5060008167ffffffffffffffff81111561019157610190610a41565b5b6040519080825280602002602001820160405280156101ca57816020015b6101b76106f4565b8152602001906001900390816101af5790505b5090506000805b600080549050811015610436573373ffffffffffffffffffffffffffffffffffffffff166001600083815260200190815260200160002060009054906101000a900473ffffffffffffffffffffffffffffffffffffffff1673ffffffffffffffffffffffffffffffffffffffff161480156102825750600015156000828154811061025f5761025e610c98565b5b906000526020600020906004020160030160019054906101000a900460ff161515145b15610429576000818154811061029b5761029a610c98565b5b90600052602060002090600402016040518060a0016040529081600082015481526020016001820160009054906101000a900473ffffffffffffffffffffffffffffffffffffffff1673ffffffffffffffffffffffffffffffffffffffff1673ffffffffffffffffffffffffffffffffffffffff16815260200160028201805461032490610d6d565b80601f016020809104026020016040519081016040528092919081815260200182805461035090610d6d565b801561039d5780601f106103725761010080835404028352916020019161039d565b820191906000526020600020905b81548152906001019060200180831161038057829003601f168201915b505050505081526020016003820160009054906101000a900460ff1660028111156103cb576103ca610863565b5b60028111156103dd576103dc610863565b5b81526020016003820160019054906101000a900460ff16151515158152505083838151811061040f5761040e610c98565b5b6020026020010181905250818061042590610cf6565b9250505b80806001019150506101d1565b5081935050505090565b60008080549050905060006040518060a001604052808381526020013373ffffffffffffffffffffffffffffffffffffffff16815260200186815260200185600281111561049157610490610863565b5b815260200184151581525090806001815401808255809150506001900390600052602060002090600402016000909190919091506000820151816000015560208201518160010160006101000a81548173ffffffffffffffffffffffffffffffffffffffff021916908373ffffffffffffffffffffffffffffffffffffffff160217905550604082015181600201908161052b9190610f4a565b5060608201518160030160006101000a81548160ff0219169083600281111561055757610556610863565b5b021790555060808201518160030160016101000a81548160ff0219169083151502179055505050336001600083815260200190815260200160002060006101000a81548173ffffffffffffffffffffffffffffffffffffffff021916908373ffffffffffffffffffffffffffffffffffffffff1602179055507f16f06cf27990f3d93d55859e8eb69709d2e04a943575786c8b2bb615aa6d1831338286866040516106059493929190611093565b60405180910390a150505050565b3373ffffffffffffffffffffffffffffffffffffffff166001600084815260200190815260200160002060009054906101000a900473ffffffffffffffffffffffffffffffffffffffff1673ffffffffffffffffffffffffffffffffffffffff16036106f057806000838154811061068e5761068d610c98565b5b906000526020600020906004020160030160016101000a81548160ff0219169083151502179055507ff88a35c3d2016c409a46570b994a17b408dbc83c14a03f521512d50b85386d0682826040516106e79291906110ee565b60405180910390a15b5050565b6040518060a0016040528060008152602001600073ffffffffffffffffffffffffffffffffffffffff168152602001606081526020016000600281111561073e5761073d610863565b5b81526020016000151581525090565b600081519050919050565b600082825260208201905092915050565b6000819050602082019050919050565b6000819050919050565b61078c81610779565b82525050565b600073ffffffffffffffffffffffffffffffffffffffff82169050919050565b60006107bd82610792565b9050919050565b6107cd816107b2565b82525050565b600081519050919050565b600082825260208201905092915050565b60005b8381101561080d5780820151818401526020810190506107f2565b60008484015250505050565b6000601f19601f8301169050919050565b6000610835826107d3565b61083f81856107de565b935061084f8185602086016107ef565b61085881610819565b840191505092915050565b7f4e487b7100000000000000000000000000000000000000000000000000000000600052602160045260246000fd5b600381106108a3576108a2610863565b5b50565b60008190506108b482610892565b919050565b60006108c4826108a6565b9050919050565b6108d4816108b9565b82525050565b60008115159050919050565b6108ef816108da565b82525050565b600060a08301600083015161090d6000860182610783565b50602083015161092060208601826107c4565b5060408301518482036040860152610938828261082a565b915050606083015161094d60608601826108cb565b50608083015161096060808601826108e6565b508091505092915050565b600061097783836108f5565b905092915050565b6000602082019050919050565b60006109978261074d565b6109a18185610758565b9350836020820285016109b385610769565b8060005b858110156109ef57848403895281516109d0858261096b565b94506109db8361097f565b925060208a019950506001810190506109b7565b50829750879550505050505092915050565b60006020820190508181036000830152610a1b818461098c565b905092915050565b6000604051905090565b600080fd5b600080fd5b600080fd5b600080fd5b7f4e487b7100000000000000000000000000000000000000000000000000000000600052604160045260246000fd5b610a7982610819565b810181811067ffffffffffffffff82111715610a9857610a97610a41565b5b80604052505050565b6000610aab610a23565b9050610ab78282610a70565b919050565b600067ffffffffffffffff821115610ad757610ad6610a41565b5b610ae082610819565b9050602081019050919050565b82818337600083830152505050565b6000610b0f610b0a84610abc565b610aa1565b905082815260208101848484011115610b2b57610b2a610a3c565b5b610b36848285610aed565b509392505050565b600082601f830112610b5357610b52610a37565b5b8135610b63848260208601610afc565b91505092915050565b60038110610b7957600080fd5b50565b600081359050610b8b81610b6c565b92915050565b610b9a816108da565b8114610ba557600080fd5b50565b600081359050610bb781610b91565b92915050565b600080600060608486031215610bd657610bd5610a2d565b5b600084013567ffffffffffffffff811115610bf457610bf3610a32565b5b610c0086828701610b3e565b9350506020610c1186828701610b7c565b9250506040610c2286828701610ba8565b9150509250925092565b610c3581610779565b8114610c4057600080fd5b50565b600081359050610c5281610c2c565b92915050565b60008060408385031215610c6f57610c6e610a2d565b5b6000610c7d85828601610c43565b9250506020610c8e85828601610ba8565b9150509250929050565b7f4e487b7100000000000000000000000000000000000000000000000000000000600052603260045260246000fd5b7f4e487b7100000000000000000000000000000000000000000000000000000000600052601160045260246000fd5b6000610d0182610779565b91507fffffffffffffffffffffffffffffffffffffffffffffffffffffffffffffffff8203610d3357610d32610cc7565b5b600182019050919050565b7f4e487b7100000000000000000000000000000000000000000000000000000000600052602260045260246000fd5b60006002820490506001821680610d8557607f821691505b602082108103610d9857610d97610d3e565b5b50919050565b60008190508160005260206000209050919050565b60006020601f8301049050919050565b600082821b905092915050565b600060088302610e007fffffffffffffffffffffffffffffffffffffffffffffffffffffffffffffffff82610dc3565b610e0a8683610dc3565b95508019841693508086168417925050509392505050565b6000819050919050565b6000610e47610e42610e3d84610779565b610e22565b610779565b9050919050565b6000819050919050565b610e6183610e2c565b610e75610e6d82610e4e565b848454610dd0565b825550505050565b600090565b610e8a610e7d565b610e95818484610e58565b505050565b5b81811015610eb957610eae600082610e82565b600181019050610e9b565b5050565b601f821115610efe57610ecf81610d9e565b610ed884610db3565b81016020851015610ee7578190505b610efb610ef385610db3565b830182610e9a565b50505b505050565b600082821c905092915050565b6000610f2160001984600802610f03565b1980831691505092915050565b6000610f3a8383610f10565b9150826002028217905092915050565b610f53826107d3565b67ffffffffffffffff811115610f6c57610f6b610a41565b5b610f768254610d6d565b610f81828285610ebd565b600060209050601f831160018114610fb45760008415610fa2578287015190505b610fac8582610f2e565b865550611014565b601f198416610fc286610d9e565b60005b82811015610fea57848901518255600182019150602085019450602081019050610fc5565b868310156110075784890151611003601f891682610f10565b8355505b6001600288020188555050505b505050505050565b611025816107b2565b82525050565b61103481610779565b82525050565b600082825260208201905092915050565b6000611056826107d3565b611060818561103a565b93506110708185602086016107ef565b61107981610819565b840191505092915050565b61108d816108b9565b82525050565b60006080820190506110a8600083018761101c565b6110b5602083018661102b565b81810360408301526110c7818561104b565b90506110d66060830184611084565b95945050505050565b6110e8816108da565b82525050565b6000604082019050611103600083018561102b565b61111060208301846110df565b939250505056fea2646970667358221220b06cdb4412eebb9720ad84e1874f76d7aadce4c0a7ace8a638b4f6242870733e64736f6c634300081a0033",
  "linkReferences": {},
  "deployedLinkReferences": {}
}