{
  "_format": "hh-sol-artifact-1",
  "contractName": "TaskContract",
  "sourceName": "contracts/TaksContract.sol",
  "abi": [
    {
      "anonymous": false,
      "inputs": [
        {
          "indexed": false,
          "internalType": "address",
          "name": "recipient",
          "type": "address"
        },
        {
          "indexed": false,
          "internalType": "uint256",
          "name": "taskId",
          "type": "uint256"
        }
      ],
      "name": "AddTask",
      "type": "event"
    },
    {
      "anonymous": false,
      "inputs": [
        {
          "indexed": false,
          "internalType": "uint256",
          "name": "taskId",
          "type": "uint256"
        },
        {
          "indexed": false,
          "internalType": "bool",
          "name": "isDeleted",
          "type": "bool"
        }
      ],
      "name": "DeleteTask",
      "type": "event"
    },
    {
      "inputs": [
        {
          "internalType": "string",
          "name": "taskText",
          "type": "string"
        },
        {
          "internalType": "bool",
          "name": "isDeleted",
          "type": "bool"
        }
      ],
      "name": "addTask",
      "outputs": [],
      "stateMutability": "nonpayable",
      "type": "function"
    },
    {
      "inputs": [
        {
          "internalType": "uint256",
          "name": "taskId",
          "type": "uint256"
        },
        {
          "internalType": "bool",
          "name": "isDeleted",
          "type": "bool"
        }
      ],
      "name": "deleteTask",
      "outputs": [],
      "stateMutability": "nonpayable",
      "type": "function"
    },
    {
      "inputs": [],
      "name": "getMyTasks",
      "outputs": [
        {
          "components": [
            {
              "internalType": "uint256",
              "name": "id",
              "type": "uint256"
            },
            {
              "internalType": "address",
              "name": "username",
              "type": "address"
            },
            {
              "internalType": "string",
              "name": "taskText",
              "type": "string"
            },
            {
              "internalType": "bool",
              "name": "isDeleted",
              "type": "bool"
            }
          ],
          "internalType": "struct TaskContract.Task[]",
          "name": "",
          "type": "tuple[]"
        }
      ],
      "stateMutability": "view",
      "type": "function"
    }
  ],
  "bytecode": "0x6080604052348015600f57600080fd5b50610f458061001f6000396000f3fe608060405234801561001057600080fd5b50600436106100415760003560e01c806320df4581146100465780636e13f81814610062578063aaba290714610080575b600080fd5b610060600480360381019061005b9190610815565b61009c565b005b61006a610222565b6040516100779190610a7e565b60405180910390f35b61009a60048036038101906100959190610acc565b610562565b005b600080805490509050600060405180608001604052808381526020013373ffffffffffffffffffffffffffffffffffffffff16815260200185815260200184151581525090806001815401808255809150506001900390600052602060002090600402016000909190919091506000820151816000015560208201518160010160006101000a81548173ffffffffffffffffffffffffffffffffffffffff021916908373ffffffffffffffffffffffffffffffffffffffff160217905550604082015181600201908161016f9190610d18565b5060608201518160030160006101000a81548160ff0219169083151502179055505050336001600083815260200190815260200160002060006101000a81548173ffffffffffffffffffffffffffffffffffffffff021916908373ffffffffffffffffffffffffffffffffffffffff1602179055507f1f54e1ba1832d428fbd7e7792beaf62b1fc5a382c207ffd614209c1413e94fda3382604051610215929190610e08565b60405180910390a1505050565b60606000808054905067ffffffffffffffff811115610244576102436106b2565b5b60405190808252806020026020018201604052801561027d57816020015b61026a610643565b8152602001906001900390816102625790505b5090506000805b6000805490508110156104ae573373ffffffffffffffffffffffffffffffffffffffff166001600083815260200190815260200160002060009054906101000a900473ffffffffffffffffffffffffffffffffffffffff1673ffffffffffffffffffffffffffffffffffffffff161480156103355750600015156000828154811061031257610311610e31565b5b906000526020600020906004020160030160009054906101000a900460ff161515145b156104a1576000818154811061034e5761034d610e31565b5b9060005260206000209060040201604051806080016040529081600082015481526020016001820160009054906101000a900473ffffffffffffffffffffffffffffffffffffffff1673ffffffffffffffffffffffffffffffffffffffff1673ffffffffffffffffffffffffffffffffffffffff1681526020016002820180546103d790610b3b565b80601f016020809104026020016040519081016040528092919081815260200182805461040390610b3b565b80156104505780601f1061042557610100808354040283529160200191610450565b820191906000526020600020905b81548152906001019060200180831161043357829003601f168201915b505050505081526020016003820160009054906101000a900460ff16151515158152505083838151811061048757610486610e31565b5b6020026020010181905250818061049d90610e8f565b9250505b8080600101915050610284565b5060008167ffffffffffffffff8111156104cb576104ca6106b2565b5b60405190808252806020026020018201604052801561050457816020015b6104f1610643565b8152602001906001900390816104e95790505b50905060005b828110156105585783818151811061052557610524610e31565b5b60200260200101518282815181106105405761053f610e31565b5b6020026020010181905250808060010191505061050a565b5080935050505090565b3373ffffffffffffffffffffffffffffffffffffffff166001600084815260200190815260200160002060009054906101000a900473ffffffffffffffffffffffffffffffffffffffff1673ffffffffffffffffffffffffffffffffffffffff160361063f5780600083815481106105dd576105dc610e31565b5b906000526020600020906004020160030160006101000a81548160ff0219169083151502179055507ff88a35c3d2016c409a46570b994a17b408dbc83c14a03f521512d50b85386d068282604051610636929190610ee6565b60405180910390a15b5050565b604051806080016040528060008152602001600073ffffffffffffffffffffffffffffffffffffffff168152602001606081526020016000151581525090565b6000604051905090565b600080fd5b600080fd5b600080fd5b600080fd5b6000601f19601f8301169050919050565b7f4e487b7100000000000000000000000000000000000000000000000000000000600052604160045260246000fd5b6106ea826106a1565b810181811067ffffffffffffffff82111715610709576107086106b2565b5b80604052505050565b600061071c610683565b905061072882826106e1565b919050565b600067ffffffffffffffff821115610748576107476106b2565b5b610751826106a1565b9050602081019050919050565b82818337600083830152505050565b600061078061077b8461072d565b610712565b90508281526020810184848401111561079c5761079b61069c565b5b6107a784828561075e565b509392505050565b600082601f8301126107c4576107c3610697565b5b81356107d484826020860161076d565b91505092915050565b60008115159050919050565b6107f2816107dd565b81146107fd57600080fd5b50565b60008135905061080f816107e9565b92915050565b6000806040838503121561082c5761082b61068d565b5b600083013567ffffffffffffffff81111561084a57610849610692565b5b610856858286016107af565b925050602061086785828601610800565b9150509250929050565b600081519050919050565b600082825260208201905092915050565b6000819050602082019050919050565b6000819050919050565b6108b08161089d565b82525050565b600073ffffffffffffffffffffffffffffffffffffffff82169050919050565b60006108e1826108b6565b9050919050565b6108f1816108d6565b82525050565b600081519050919050565b600082825260208201905092915050565b60005b83811015610931578082015181840152602081019050610916565b60008484015250505050565b6000610948826108f7565b6109528185610902565b9350610962818560208601610913565b61096b816106a1565b840191505092915050565b61097f816107dd565b82525050565b600060808301600083015161099d60008601826108a7565b5060208301516109b060208601826108e8565b50604083015184820360408601526109c8828261093d565b91505060608301516109dd6060860182610976565b508091505092915050565b60006109f48383610985565b905092915050565b6000602082019050919050565b6000610a1482610871565b610a1e818561087c565b935083602082028501610a308561088d565b8060005b85811015610a6c5784840389528151610a4d85826109e8565b9450610a58836109fc565b925060208a01995050600181019050610a34565b50829750879550505050505092915050565b60006020820190508181036000830152610a988184610a09565b905092915050565b610aa98161089d565b8114610ab457600080fd5b50565b600081359050610ac681610aa0565b92915050565b60008060408385031215610ae357610ae261068d565b5b6000610af185828601610ab7565b9250506020610b0285828601610800565b9150509250929050565b7f4e487b7100000000000000000000000000000000000000000000000000000000600052602260045260246000fd5b60006002820490506001821680610b5357607f821691505b602082108103610b6657610b65610b0c565b5b50919050565b60008190508160005260206000209050919050565b60006020601f8301049050919050565b600082821b905092915050565b600060088302610bce7fffffffffffffffffffffffffffffffffffffffffffffffffffffffffffffffff82610b91565b610bd88683610b91565b95508019841693508086168417925050509392505050565b6000819050919050565b6000610c15610c10610c0b8461089d565b610bf0565b61089d565b9050919050565b6000819050919050565b610c2f83610bfa565b610c43610c3b82610c1c565b848454610b9e565b825550505050565b600090565b610c58610c4b565b610c63818484610c26565b505050565b5b81811015610c8757610c7c600082610c50565b600181019050610c69565b5050565b601f821115610ccc57610c9d81610b6c565b610ca684610b81565b81016020851015610cb5578190505b610cc9610cc185610b81565b830182610c68565b50505b505050565b600082821c905092915050565b6000610cef60001984600802610cd1565b1980831691505092915050565b6000610d088383610cde565b9150826002028217905092915050565b610d21826108f7565b67ffffffffffffffff811115610d3a57610d396106b2565b5b610d448254610b3b565b610d4f828285610c8b565b600060209050601f831160018114610d825760008415610d70578287015190505b610d7a8582610cfc565b865550610de2565b601f198416610d9086610b6c565b60005b82811015610db857848901518255600182019150602085019450602081019050610d93565b86831015610dd55784890151610dd1601f891682610cde565b8355505b6001600288020188555050505b505050505050565b610df3816108d6565b82525050565b610e028161089d565b82525050565b6000604082019050610e1d6000830185610dea565b610e2a6020830184610df9565b9392505050565b7f4e487b7100000000000000000000000000000000000000000000000000000000600052603260045260246000fd5b7f4e487b7100000000000000000000000000000000000000000000000000000000600052601160045260246000fd5b6000610e9a8261089d565b91507fffffffffffffffffffffffffffffffffffffffffffffffffffffffffffffffff8203610ecc57610ecb610e60565b5b600182019050919050565b610ee0816107dd565b82525050565b6000604082019050610efb6000830185610df9565b610f086020830184610ed7565b939250505056fea2646970667358221220d2926744808ff08d68f59109c7fa6706cd314fba230a65a14b941df56ad1670264736f6c634300081a0033",
  "linkReferences": {},
  "deployedLinkReferences": {}
}